{
  "_format": "hh-sol-artifact-1",
  "contractName": "CryptoDevDAO",
  "sourceName": "contracts/Dao.sol",
  "abi": [
    {
      "inputs": [
        {
          "internalType": "address",
          "name": "mp",
          "type": "address"
        },
        {
          "internalType": "address",
          "name": "cdNFT",
          "type": "address"
        }
      ],
      "stateMutability": "payable",
      "type": "constructor"
    },
    {
      "anonymous": false,
      "inputs": [
        {
          "indexed": true,
          "internalType": "address",
          "name": "previousOwner",
          "type": "address"
        },
        {
          "indexed": true,
          "internalType": "address",
          "name": "newOwner",
          "type": "address"
        }
      ],
      "name": "OwnershipTransferred",
      "type": "event"
    },
    {
      "stateMutability": "payable",
      "type": "fallback"
    },
    {
      "inputs": [
        {
          "internalType": "uint256",
          "name": "_tokenId",
          "type": "uint256"
        }
      ],
      "name": "createPropsal",
      "outputs": [
        {
          "internalType": "uint256",
          "name": "",
          "type": "uint256"
        }
      ],
      "stateMutability": "nonpayable",
      "type": "function"
    },
    {
      "inputs": [
        {
          "internalType": "uint256",
          "name": "pInd",
          "type": "uint256"
        }
      ],
      "name": "executeProposal",
      "outputs": [],
      "stateMutability": "nonpayable",
      "type": "function"
    },
    {
      "inputs": [],
      "name": "numProposals",
      "outputs": [
        {
          "internalType": "uint256",
          "name": "",
          "type": "uint256"
        }
      ],
      "stateMutability": "view",
      "type": "function"
    },
    {
      "inputs": [],
      "name": "owner",
      "outputs": [
        {
          "internalType": "address",
          "name": "",
          "type": "address"
        }
      ],
      "stateMutability": "view",
      "type": "function"
    },
    {
      "inputs": [
        {
          "internalType": "uint256",
          "name": "",
          "type": "uint256"
        }
      ],
      "name": "proposals",
      "outputs": [
        {
          "internalType": "uint256",
          "name": "deadline",
          "type": "uint256"
        },
        {
          "internalType": "uint256",
          "name": "yeoVotes",
          "type": "uint256"
        },
        {
          "internalType": "uint256",
          "name": "neoVotes",
          "type": "uint256"
        },
        {
          "internalType": "uint256",
          "name": "tokenId",
          "type": "uint256"
        },
        {
          "internalType": "bool",
          "name": "executed",
          "type": "bool"
        }
      ],
      "stateMutability": "view",
      "type": "function"
    },
    {
      "inputs": [],
      "name": "renounceOwnership",
      "outputs": [],
      "stateMutability": "nonpayable",
      "type": "function"
    },
    {
      "inputs": [
        {
          "internalType": "address",
          "name": "newOwner",
          "type": "address"
        }
      ],
      "name": "transferOwnership",
      "outputs": [],
      "stateMutability": "nonpayable",
      "type": "function"
    },
    {
      "inputs": [
        {
          "internalType": "uint256",
          "name": "proposalInd",
          "type": "uint256"
        },
        {
          "internalType": "enum CryptoDevDAO.Vote",
          "name": "v",
          "type": "uint8"
        }
      ],
      "name": "voteOnProposal",
      "outputs": [],
      "stateMutability": "nonpayable",
      "type": "function"
    },
    {
      "inputs": [],
      "name": "withdrawEther",
      "outputs": [],
      "stateMutability": "nonpayable",
      "type": "function"
    },
    {
      "stateMutability": "payable",
      "type": "receive"
    }
  ],
  "bytecode": "0x60806040526040516200177f3803806200177f833981810160405281019062000029919062000209565b620000496200003d620000d360201b60201c565b620000db60201b60201c565b81600360006101000a81548173ffffffffffffffffffffffffffffffffffffffff021916908373ffffffffffffffffffffffffffffffffffffffff16021790555080600460006101000a81548173ffffffffffffffffffffffffffffffffffffffff021916908373ffffffffffffffffffffffffffffffffffffffff160217905550505062000250565b600033905090565b60008060009054906101000a900473ffffffffffffffffffffffffffffffffffffffff169050816000806101000a81548173ffffffffffffffffffffffffffffffffffffffff021916908373ffffffffffffffffffffffffffffffffffffffff1602179055508173ffffffffffffffffffffffffffffffffffffffff168173ffffffffffffffffffffffffffffffffffffffff167f8be0079c531659141344cd1fd0a4f28419497f9722a3daafe3b4186f6b6457e060405160405180910390a35050565b600080fd5b600073ffffffffffffffffffffffffffffffffffffffff82169050919050565b6000620001d182620001a4565b9050919050565b620001e381620001c4565b8114620001ef57600080fd5b50565b6000815190506200020381620001d8565b92915050565b600080604083850312156200022357620002226200019f565b5b60006200023385828601620001f2565b92505060206200024685828601620001f2565b9150509250929050565b61151f80620002606000396000f3fe60806040526004361061008a5760003560e01c80637362377b116100595780637362377b1461013f5780638da5cb5b14610156578063ac6deb9b14610181578063efafb22e146101be578063f2fde38b146101e757610091565b8063013cf08b146100935780630d61b519146100d4578063400e3949146100fd578063715018a61461012857610091565b3661009157005b005b34801561009f57600080fd5b506100ba60048036038101906100b59190610d7e565b610210565b6040516100cb959493929190610dd5565b60405180910390f35b3480156100e057600080fd5b506100fb60048036038101906100f69190610d7e565b610253565b005b34801561010957600080fd5b506101126105c8565b60405161011f9190610e28565b60405180910390f35b34801561013457600080fd5b5061013d6105ce565b005b34801561014b57600080fd5b506101546105e2565b005b34801561016257600080fd5b5061016b61063a565b6040516101789190610e84565b60405180910390f35b34801561018d57600080fd5b506101a860048036038101906101a39190610d7e565b610663565b6040516101b59190610e28565b60405180910390f35b3480156101ca57600080fd5b506101e560048036038101906101e09190610ec4565b6108a2565b005b3480156101f357600080fd5b5061020e60048036038101906102099190610f30565b610b75565b005b60016020528060005260406000206000915090508060000154908060010154908060020154908060030154908060040160009054906101000a900460ff16905085565b6000600460009054906101000a900473ffffffffffffffffffffffffffffffffffffffff1673ffffffffffffffffffffffffffffffffffffffff166370a08231336040518263ffffffff1660e01b81526004016102b09190610e84565b60206040518083038186803b1580156102c857600080fd5b505afa1580156102dc573d6000803e3d6000fd5b505050506040513d601f19601f820116820180604052508101906103009190610f72565b11610340576040517f08c379a000000000000000000000000000000000000000000000000000000000815260040161033790610ffc565b60405180910390fd5b80426001600083815260200190815260200160002060000154111561039a576040517f08c379a000000000000000000000000000000000000000000000000000000000815260040161039190611068565b60405180910390fd5b600015156001600083815260200190815260200160002060040160009054906101000a900460ff16151514610404576040517f08c379a00000000000000000000000000000000000000000000000000000000081526004016103fb906110d4565b60405180910390fd5b60006001600084815260200190815260200160002090508060020154816001015411156105a6576000600360009054906101000a900473ffffffffffffffffffffffffffffffffffffffff1673ffffffffffffffffffffffffffffffffffffffff166398d5fdca6040518163ffffffff1660e01b815260040160206040518083038186803b15801561049557600080fd5b505afa1580156104a9573d6000803e3d6000fd5b505050506040513d601f19601f820116820180604052508101906104cd9190610f72565b905080471015610512576040517f08c379a000000000000000000000000000000000000000000000000000000000815260040161050990611140565b60405180910390fd5b600360009054906101000a900473ffffffffffffffffffffffffffffffffffffffff1673ffffffffffffffffffffffffffffffffffffffff1663efef39a18284600301546040518363ffffffff1660e01b81526004016105729190610e28565b6000604051808303818588803b15801561058b57600080fd5b505af115801561059f573d6000803e3d6000fd5b5050505050505b60018160040160006101000a81548160ff021916908315150217905550505050565b60025481565b6105d6610bf9565b6105e06000610c77565b565b6105ea610bf9565b6105f261063a565b73ffffffffffffffffffffffffffffffffffffffff166108fc479081150290604051600060405180830381858888f19350505050158015610637573d6000803e3d6000fd5b50565b60008060009054906101000a900473ffffffffffffffffffffffffffffffffffffffff16905090565b600080600460009054906101000a900473ffffffffffffffffffffffffffffffffffffffff1673ffffffffffffffffffffffffffffffffffffffff166370a08231336040518263ffffffff1660e01b81526004016106c19190610e84565b60206040518083038186803b1580156106d957600080fd5b505afa1580156106ed573d6000803e3d6000fd5b505050506040513d601f19601f820116820180604052508101906107119190610f72565b11610751576040517f08c379a000000000000000000000000000000000000000000000000000000000815260040161074890610ffc565b60405180910390fd5b600360009054906101000a900473ffffffffffffffffffffffffffffffffffffffff1673ffffffffffffffffffffffffffffffffffffffff166396e494e8836040518263ffffffff1660e01b81526004016107ac9190610e28565b60206040518083038186803b1580156107c457600080fd5b505afa1580156107d8573d6000803e3d6000fd5b505050506040513d601f19601f820116820180604052508101906107fc919061118c565b61083b576040517f08c379a000000000000000000000000000000000000000000000000000000000815260040161083290611205565b60405180910390fd5b6000600160006002548152602001908152602001600020905082816003018190555061012c4261086b9190611254565b816000018190555060026000815480929190610886906112aa565b9190505550600160025461089a91906112f3565b915050919050565b81426001600083815260200190815260200160002060000154116108c557600080fd5b6000600160008581526020019081526020016000209050600080600460009054906101000a900473ffffffffffffffffffffffffffffffffffffffff1673ffffffffffffffffffffffffffffffffffffffff166370a08231336040518263ffffffff1660e01b815260040161093a9190610e84565b60206040518083038186803b15801561095257600080fd5b505afa158015610966573d6000803e3d6000fd5b505050506040513d601f19601f8201168201806040525081019061098a9190610f72565b905060005b81811015610b6c576000600460009054906101000a900473ffffffffffffffffffffffffffffffffffffffff1673ffffffffffffffffffffffffffffffffffffffff16632f745c5933846040518363ffffffff1660e01b81526004016109f6929190611327565b60206040518083038186803b158015610a0e57600080fd5b505afa158015610a22573d6000803e3d6000fd5b505050506040513d601f19601f82011682018060405250810190610a469190610f72565b90506000151585600501600083815260200190815260200160002060009054906101000a900460ff1615151415610aac578380610a82906112aa565b9450506001151585600501600083815260200190815260200160002060009054906101000a905050505b60008411610aef576040517f08c379a0000000000000000000000000000000000000000000000000000000008152600401610ae69061139c565b60405180910390fd5b60006001811115610b0357610b026113bc565b5b876001811115610b1657610b156113bc565b5b1415610b3c5783856001016000828254610b309190611254565b92505081905550610b58565b83856002016000828254610b509190611254565b925050819055505b508080610b64906112aa565b91505061098f565b50505050505050565b610b7d610bf9565b600073ffffffffffffffffffffffffffffffffffffffff168173ffffffffffffffffffffffffffffffffffffffff161415610bed576040517f08c379a0000000000000000000000000000000000000000000000000000000008152600401610be49061145d565b60405180910390fd5b610bf681610c77565b50565b610c01610d3b565b73ffffffffffffffffffffffffffffffffffffffff16610c1f61063a565b73ffffffffffffffffffffffffffffffffffffffff1614610c75576040517f08c379a0000000000000000000000000000000000000000000000000000000008152600401610c6c906114c9565b60405180910390fd5b565b60008060009054906101000a900473ffffffffffffffffffffffffffffffffffffffff169050816000806101000a81548173ffffffffffffffffffffffffffffffffffffffff021916908373ffffffffffffffffffffffffffffffffffffffff1602179055508173ffffffffffffffffffffffffffffffffffffffff168173ffffffffffffffffffffffffffffffffffffffff167f8be0079c531659141344cd1fd0a4f28419497f9722a3daafe3b4186f6b6457e060405160405180910390a35050565b600033905090565b600080fd5b6000819050919050565b610d5b81610d48565b8114610d6657600080fd5b50565b600081359050610d7881610d52565b92915050565b600060208284031215610d9457610d93610d43565b5b6000610da284828501610d69565b91505092915050565b610db481610d48565b82525050565b60008115159050919050565b610dcf81610dba565b82525050565b600060a082019050610dea6000830188610dab565b610df76020830187610dab565b610e046040830186610dab565b610e116060830185610dab565b610e1e6080830184610dc6565b9695505050505050565b6000602082019050610e3d6000830184610dab565b92915050565b600073ffffffffffffffffffffffffffffffffffffffff82169050919050565b6000610e6e82610e43565b9050919050565b610e7e81610e63565b82525050565b6000602082019050610e996000830184610e75565b92915050565b60028110610eac57600080fd5b50565b600081359050610ebe81610e9f565b92915050565b60008060408385031215610edb57610eda610d43565b5b6000610ee985828601610d69565b9250506020610efa85828601610eaf565b9150509250929050565b610f0d81610e63565b8114610f1857600080fd5b50565b600081359050610f2a81610f04565b92915050565b600060208284031215610f4657610f45610d43565b5b6000610f5484828501610f1b565b91505092915050565b600081519050610f6c81610d52565b92915050565b600060208284031215610f8857610f87610d43565b5b6000610f9684828501610f5d565b91505092915050565b600082825260208201905092915050565b7f594f5520415245204e4f5420412044414f204d454d4245520000000000000000600082015250565b6000610fe6601883610f9f565b9150610ff182610fb0565b602082019050919050565b6000602082019050818103600083015261101581610fd9565b9050919050565b7f444541444c494e455f4e4f545f45584345454445440000000000000000000000600082015250565b6000611052601583610f9f565b915061105d8261101c565b602082019050919050565b6000602082019050818103600083015261108181611045565b9050919050565b7f50524f504f53414c5f414c52454144595f455845435554454400000000000000600082015250565b60006110be601983610f9f565b91506110c982611088565b602082019050919050565b600060208201905081810360008301526110ed816110b1565b9050919050565b7f496e7375666666696369656e742046554e445300000000000000000000000000600082015250565b600061112a601383610f9f565b9150611135826110f4565b602082019050919050565b600060208201905081810360008301526111598161111d565b9050919050565b61116981610dba565b811461117457600080fd5b50565b60008151905061118681611160565b92915050565b6000602082840312156111a2576111a1610d43565b5b60006111b084828501611177565b91505092915050565b7f4e4654204953204e4f5420415641494c41424c45000000000000000000000000600082015250565b60006111ef601483610f9f565b91506111fa826111b9565b602082019050919050565b6000602082019050818103600083015261121e816111e2565b9050919050565b7f4e487b7100000000000000000000000000000000000000000000000000000000600052601160045260246000fd5b600061125f82610d48565b915061126a83610d48565b9250827fffffffffffffffffffffffffffffffffffffffffffffffffffffffffffffffff0382111561129f5761129e611225565b5b828201905092915050565b60006112b582610d48565b91507fffffffffffffffffffffffffffffffffffffffffffffffffffffffffffffffff8214156112e8576112e7611225565b5b600182019050919050565b60006112fe82610d48565b915061130983610d48565b92508282101561131c5761131b611225565b5b828203905092915050565b600060408201905061133c6000830185610e75565b6113496020830184610dab565b9392505050565b7f414c52454144595f564f54454400000000000000000000000000000000000000600082015250565b6000611386600d83610f9f565b915061139182611350565b602082019050919050565b600060208201905081810360008301526113b581611379565b9050919050565b7f4e487b7100000000000000000000000000000000000000000000000000000000600052602160045260246000fd5b7f4f776e61626c653a206e6577206f776e657220697320746865207a65726f206160008201527f6464726573730000000000000000000000000000000000000000000000000000602082015250565b6000611447602683610f9f565b9150611452826113eb565b604082019050919050565b600060208201905081810360008301526114768161143a565b9050919050565b7f4f776e61626c653a2063616c6c6572206973206e6f7420746865206f776e6572600082015250565b60006114b3602083610f9f565b91506114be8261147d565b602082019050919050565b600060208201905081810360008301526114e2816114a6565b905091905056fea2646970667358221220306ce7677adf718f06d0e200e239e1dc91bac544d4a3a742fde34e4a590e2a9164736f6c63430008090033",
  "linkReferences": {},
  "deployedLinkReferences": {}
}