{
  "_format": "hh-sol-artifact-1",
  "contractName": "FakeNFTMarketPlace",
  "sourceName": "contracts/FakeNFTMarketplace.sol",
  "abi": [
    {
      "inputs": [
        {
          "internalType": "uint256",
          "name": "_tokenId",
          "type": "uint256"
        }
      ],
      "name": "available",
      "outputs": [
        {
          "internalType": "bool",
          "name": "",
          "type": "bool"
        }
      ],
      "stateMutability": "view",
      "type": "function"
    },
    {
      "inputs": [],
      "name": "getPrice",
      "outputs": [
        {
          "internalType": "uint256",
          "name": "",
          "type": "uint256"
        }
      ],
      "stateMutability": "view",
      "type": "function"
    },
    {
      "inputs": [],
      "name": "nftPrice",
      "outputs": [
        {
          "internalType": "uint256",
          "name": "",
          "type": "uint256"
        }
      ],
      "stateMutability": "view",
      "type": "function"
    },
    {
      "inputs": [
        {
          "internalType": "uint256",
          "name": "_tokenId",
          "type": "uint256"
        }
      ],
      "name": "purchase",
      "outputs": [],
      "stateMutability": "payable",
      "type": "function"
    },
    {
      "inputs": [
        {
          "internalType": "uint256",
          "name": "",
          "type": "uint256"
        }
      ],
      "name": "token",
      "outputs": [
        {
          "internalType": "address",
          "name": "",
          "type": "address"
        }
      ],
      "stateMutability": "view",
      "type": "function"
    }
  ],
  "bytecode": "0x608060405267016345785d8a000060015534801561001c57600080fd5b506104688061002c6000396000f3fe60806040526004361061004a5760003560e01c8063044215c61461004f5780630d39fc811461008c57806396e494e8146100b757806398d5fdca146100f4578063efef39a11461011f575b600080fd5b34801561005b57600080fd5b50610076600480360381019061007191906102cc565b61013b565b604051610083919061033a565b60405180910390f35b34801561009857600080fd5b506100a161016e565b6040516100ae9190610364565b60405180910390f35b3480156100c357600080fd5b506100de60048036038101906100d991906102cc565b610174565b6040516100eb919061039a565b60405180910390f35b34801561010057600080fd5b506101096101ef565b6040516101169190610364565b60405180910390f35b610139600480360381019061013491906102cc565b6101f9565b005b60006020528060005260406000206000915054906101000a900473ffffffffffffffffffffffffffffffffffffffff1681565b60015481565b60008073ffffffffffffffffffffffffffffffffffffffff1660008084815260200190815260200160002060009054906101000a900473ffffffffffffffffffffffffffffffffffffffff1673ffffffffffffffffffffffffffffffffffffffff1614156101e557600190506101ea565b600090505b919050565b6000600154905090565b600154341461023d576040517f08c379a000000000000000000000000000000000000000000000000000000000815260040161023490610412565b60405180910390fd5b3360008083815260200190815260200160002060006101000a81548173ffffffffffffffffffffffffffffffffffffffff021916908373ffffffffffffffffffffffffffffffffffffffff16021790555050565b600080fd5b6000819050919050565b6102a981610296565b81146102b457600080fd5b50565b6000813590506102c6816102a0565b92915050565b6000602082840312156102e2576102e1610291565b5b60006102f0848285016102b7565b91505092915050565b600073ffffffffffffffffffffffffffffffffffffffff82169050919050565b6000610324826102f9565b9050919050565b61033481610319565b82525050565b600060208201905061034f600083018461032b565b92915050565b61035e81610296565b82525050565b60006020820190506103796000830184610355565b92915050565b60008115159050919050565b6103948161037f565b82525050565b60006020820190506103af600083018461038b565b92915050565b600082825260208201905092915050565b7f4e465420434f535420495320302e312045544800000000000000000000000000600082015250565b60006103fc6013836103b5565b9150610407826103c6565b602082019050919050565b6000602082019050818103600083015261042b816103ef565b905091905056fea26469706673582212205b02778d57665b94b9e46b6b7ff436349d5cee8aa8bb772931ef6e046ed7805d64736f6c63430008090033",
  "linkReferences": {},
  "deployedLinkReferences": {}
}